:10000E006C61737400008060F88780848484FE8243
:10001E008382808000010000FF00404040407F400E
:10002E004040400000101012D2565A5253525A56A7
:10003E00D2121010004030007785858DB5858585EC
:10004E00E700106000101010FF9020988888E98E4D
:10005E008888A898000242817F000080844B281077
:10006E0028478000004030EF242480E49C10545434
:10007E00FF547C100001017F21512618274445456D
:10008E005F4545440080828282FE8282828282FEA9
:10009E008282828000008040300F0000000000FF4E
:1000AE0000000000001010F01F10F00040E0584754
:1000BE00405060C0004022150816210000FE42424A
:1000CE004242FE00001060028C0008F94EC8205813
:1000DE004F48C8080004047E8140300F407F004422
:1000EE00847F0404000008488808C838404040FF58
:1000FE002022AC20000020100C0304188040201792
:10010E00182641F0000000000000000000002F0043
:10011E000000000700070000147F147F1400242A3B
:10012E007F2A1200626408132300364955225000BC
:10013E00000503000000001C224100000041221CAB
:10014E00000014083E08140008083E0808000000CD
:10015E00A0600000080808080800006060000000A9
:10016E002010080402003E5149453E0000427F40E7
:10017E0000004261514946002141454B310018149F
:10018E00127F10002745454539003C4A4949300049
:10019E0001710905030036494949360006494929C6
:1001AE001E0000363600000000563600000008140F
:1001BE0022410000141414141400004122140800EB
:1001CE00020151090600324959513E007C121112AA
:1001DE007C007F49494936003E41414122007F4122
:1001EE0041221C007F49494941007F09090901004C
:1001FE003E4149497A007F0808087F0000417F414F
:10020E0000002040413F01007F08142241007F4042
:10021E00404040007F020C027F007F0408107F00E8
:10022E003E4141413E007F09090906003E415121F0
:10023E005E007F09192946004649494931000101EE
:10024E007F0101003F4040403F001F2040201F0023
:10025E003F4038403F0063140814630007087008DD
:10026E000700615149454300007F41410000552A76
:10027E00552A55000041417F00000402010204008E
:10028E0040404040400000010204000020545454FD
:10029E0078007F48444438003844444420003844B1
:1002AE0044487F00385454541800087E0901020057
:1002BE0018A4A4A47C007F080404780000447D40A8
:1002CE0000004080847D00007F1028440000004123
:1002DE007F4000007C04180478007C080404780039
:1002EE00384444443800FC242424180018242418CC
:1002FE00FC007C0804040800485454542000043FB9
:10030E00444020003C4040207C001C2040201C002B
:10031E003C4030403C004428102844001CA0A0A0C3
:10032E007C004464544C441414141414140000003F
:10033E0000000000000000000000000000000000AF
:10034E00F800000000000000333000000000100C28
:10035E0006100C0600000000000000000040C078EF
:10036E0040C0784000043F04043F0404000070883D
:10037E00FC08300000001820FF211E0000F008F0DD
:10038E0000E018000000211C031E211E0000F008D2
:10039E0088700000001E2123241927211010160E2C
:1003AE00000000000000000000000000000000003F
:1003BE00E0180402000000000718204000000204AC
:1003CE0018E00000000040201807000000404080A8
:1003DE00F0804040000202010F0102020000000006
:1003EE00F0000000000101011F01010100000000EA
:1003FE00000000000080B07000000000000000004F
:10040E0000000000000001010101010101000000D7
:10041E00000000000000303000000000000000006E
:10042E000080601804006018060100000000E01053
:10043E00080810E000000F102020100F0000101010
:10044E00F8000000000020203F202000000070086F
:10045E00080888700000302824222130000030085F
:10046E0088884830000018202020110E000000C09F
:10047E002010F8000000070424243F240000F80890
:10048E0088880808000019212020110E0000E010B5
:10049E008888180000000F112020110E0000380867
:1004AE0008C83808000000003F00000000007088F7
:1004BE000808887000001C222121221C0000E01078
:1004CE00080810E0000000312222110F0000000089
:1004DE00C0C000000000000030300000000000002E
:1004EE00800000000000008060000000000000801E
:1004FE004020100800000102040810200040404077
:10050E0040404040000404040404040400000810A9
:10051E0020408000000020100804020100007048F6
:10052E00080808F0000000003036010000C030C896
:10053E0028E810E0000718272423140B000000C041
:10054E0038E0000000203C23020227382008F888FB
:10055E008888700000203F202020110E00C0300837
:10056E000808083800071820202010080008F8088E
:10057E00080810E000203F202020100F0008F88807
:10058E0088E8081000203F20202320180008F88853
:10059E0088E8081000203F200003000000C030084B
:1005AE00080838000007182020221E020008F8084C
:1005BE00000008F808203F210101213F2000080813
:1005CE00F8080800000020203F202000000000084E
:1005DE0008F8080800C08080807F00000008F888B6
:1005EE00C028180800203F20012638200008F808EF
:1005FE000000000000203F20202020300008F8F8E6
:10060E0000F8F80800203F003F003F200008F830B7
:10061E00C00008F808203F200007183F00E010082F
:10062E00080810E0000F10202020100F0008F80816
:10063E00080808F000203F210101010000E0100829
:10064E00080810E0000F18242438504F0008F888CE
:10065E008888887000203F2000030C3020007088AE
:10066E0008080838000038202121221C001808082C
:10067E00F8080818000000203F2000000008F808C5
:10068E00000008F808001F202020201F000878888E
:10069E000000C83808000007380E010000F80800F6
:1006AE00F80008F800033C0700073C030008186830
:1006BE00808068180820302C03032C30200838C89E
:1006CE0000C83808000000203F2000000010080875
:1006DE0008C8380800203826212020180000000005
:1006EE00FE020202000000007F40404000000C307D
:1006FE00C000000000000000010638C00000020229
:10070E0002FE000000004040407F00000000000498
:10071E0002020204000000000000000000000000C1
:10072E0000000000008080808080808080000202B7
:10073E000400000000000000000000000000008027
:10074E0080808000000019242222223F2008F80019
:10075E008080000000003F112020110E00000000DC
:10076E008080800000000E1120202011000000006B
:10077E00808088F800000E112020103F200000809D
:10078E008080800000001F22222222130000808021
:10079E00F0888888180020203F202000000000806C
:1007AE008080808000006B94949493600008F80021
:1007BE008080800000203F210000203F2000809894
:1007CE0098000000000020203F20200000000000C4
:1007DE00809898000000C08080807F000008F8009C
:1007EE000080808000203F24022D30200000080869
:1007FE00F8000000000020203F20200000808080B4
:10080E008080808000203F20003F20003F808000BD
:10081E008080800000203F210000203F20000080CB
:10082E008080800000001F202020201F008080007C
:10083E00808000000080FFA12020110E000000002B
:10084E008080808000000E112020A0FF808080809C
:10085E00008080800020203F2120000100000080C9
:10086E00808080800000332424242419000080809E
:10087E00E0808000000000001F202000008080002B
:10088E000000808000001F202020103F20808080EC
:10089E00000080808000010E30080601008080007C
:1008AE0080008080800F300C030C300F00008080A1
:1008BE0000808080000020312E0E3120008080804C
:1008CE00000080808080818E70180601000080807C
:1008DE0080808080000021302C222130000000001A
:1008EE0000807C020200000000003F40400000003B
:1008FE0000FF00000000000000FF000000000202E8
:10090E007C800000000040403F0000000000060117
:10091E00010202040400000000000000000010109C
:10092E0018080C4404040C4848081010101010103D
:10093E005050501010101018080808082C242404C9
:10094E00040C080828081010101030202020202039
:10095E002020202030101868480808085810103041
:10096E002020202020202020202030105010180879
:10097E004848480838080808185010101020202041
:10098E002020604040404060202010101808282889
:10099E0008080848480808484818302020204040D9
:1009AE00404040406020203010080C2424040404F1
:1009BE002424040404246408081810103020202075
:1009CE002020202020202030101010105050D090C9
:1009DE001010101010505010101010101010101089
:1009EE00101070D0101010101010101070D01010B9
:1009FE001010101010105050101010105050505069
:100A0E00D0101010101010101008183C040C0818FC
:100A1E001030202020202020202030380800000018
:100A2E0000000000000000000000000000000000B8
:100A3E0000000000000080FEFFFD3F1F1F1F1F0073
:100A4E000000000000000000000000000000000098
:100A5E000000000000000000000000000000000088
:100A6E000000000000000000000000000000000078
:100A7E000000000000000000000000000000000068
:100A8E000000000000000000000000000000000058
:100A9E000000000000000000000000000000000048
:100AAE000000000000000000000000000000000F29
:100ABE001E3C7CFEFF7FFFFF3F0F01010000000088
:100ACE000000000000000000000000000000000018
:100ADE000000000000000000000000000000000008
:100AEE0000000000000000000000000000000000F8
:100AFE0000000000000000000000000000000000E8
:100B0E0000000000000000000000000000000000D7
:100B1E0000000000000000000000000000000000C7
:100B2E0000000000000000000000000000404040F7
:100B3E00F0604043000000232000E030A0202000A1
:100B4E000040F040A0E0B0A0E0A00080E020A0E0D7
:100B5E0000E000F000002020E0A0A0A0A0200000F7
:100B6E00E080E0004060C0704000E0A0A0E0A02067
:100B7E00C020E000000000000000000000000000A7
:100B8E000000000000000000000000000000000057
:100B9E000000000000000000000000000000000047
:100BAE0000000000000000000000000011190D03FD
:100BBE003F030509110000111F1005253F252500D3
:100BCE0000221F00221E1B1A16220020141F1414AE
:100BDE000007201F000010171414141C171000001B
:100BEE000F0A3F08120E071A32001F080D070C0DD0
:100BFE00072C1F0000000000000000000000000095
:100C0E0000000000000000000000000000000000D6
:100C1E0000000000000000000000000000000000C6
:100C2E0000000000000000000000000000000000B6
:100C3E0000000000000000000000000000000000A6
:100E2E000000000000000000FEFAFAFEBE3E3E3E4C
:100E3E003C0078F0E0E0E0F0F8FCFEFFFFFF7F08FA
:100E4E00080000000000000001036FFF8F07070776
:100E5E000301000000000000000000000000000080
:100E6E0000000000FEFAFAFEBE3E3E3E3C0078F068
:100E7E00E0E0E0F0F8FCFEFFFFFF7F080800000056
:100E8E00000000000103070707FFBF0F030100006A
:100E9E00000000000080C00000FEFFFE00F8F00021
:100EAE003FFFC0C0FFFFFF181F0F00082C0404FFF8
:100EBE00FFFF02022202F000FCFC80E000F800FEC0
:100ECE00FE00803840FEFE80F800010101FFFF00A9
:0E0EDE00000101FFFF02030000FFFF00000003
:1019D5000B0E73636F72653A30303000000A45664E
:1019E50070733A30303030000002410000042300AB
:1019F50000000004080000000004190000000002B7
:101A05000C00000227000402210004022F0000023E
:101A15001D00000231000002430000022B007F027E
:0B1A2500290000022D007F023B0000A2
:101B8F00D3EF9400EE940040147D6E7C00ED1D7039
:0D1B9F00011CED4C70F7EF1F70E61E80E397
:011BAC002216
:091C1000D2A2D2A5C2A5C2A222F3
:091C1900C2A2C2A5D2A2D2A522EA
:071B2A00AD07121C107F78CB
:101B3100E4FEEF30E704D2A58002C2A5D2A2C2A280
:0E1B4100EF25E0FF0EBE08EAD2A5D2A2C2A296
:011B4F002273
:0F1B7000742B2552F58274093551F583E493FFE8
:101B7F00121B2A7F40121B31AF05121B31021C1999
:0A1BE600121BF0E4FF121BF07F1049
:101BF000121B2AE4FF121B31AF05121B31021C1904
:041B50007D07E4FF2A
:101B5400AC07ED24B0FF121BF0EC54F0C4540F4456
:0C1B640010FF121BF0EC540FFF021BF0EE
:021BCB00AC0765
:101BCD00E4FBEB24B0FF121BE6E4FAAF04121B7F1B
:081BDD000ABA80F70BBB08EA0D
:011BE50022DD
:101BAD00E4FCEC24B0FF121BF07F01121BEBE4FBF5
:0D1BBD00E4FF121B7F0BBB80F70CBC08E59A
:011BCA0022F8
:1017C6007FF47E01121B8F7FAE121BE67F40121B39
:1017D600F07F81121BF07FCF121BF07FA1121BF04E
:1017E6007FC8121BF07FA6121BF07FA8121BF07F8A
:1017F6003F121BF07FD3121BF0E4FF121BF07FD5C4
:10180600121BF07F80121BF07FD9121BF07FF112A2
:101816001BF07FDA121BF07F12121BF07FDB121B0C
:10182600F07F40121BF07F20121BF07F02121BF08C
:101836007F8D121BF07F14121BF07FA4121BF07F0A
:10184600A6121BF07FAF121BF0E4FF121BCBE4FDC8
:04185600FF021B541E
:0C1969008F538C548D558B568A5789582B
:10197500E4F559FCF55AAB56AA57A958855A82750C
:1019850083001210A1604824E0F559E553D3947EF5
:10199500400BE4F5530555E55570020554AD55AFBB
:1019A50053121B54E4FC75F006E559A42413F58283
:1019B500E5F03401F583E5822CF582E43583121BCD
:0F19C5007A0CBC06E174062553F553055A80A72A
:0119D40022F0
:0C172F008F518C528D538B548A55895673
:10173B00E4F557FCF558AB54AA55A9568558827554
:10174B0083001210A1607324E0F557E551D3947810
:10175B00400BE4F5510553E55370020552AD53AF01
:10176B0051121B54E4FC75F010E557A42CF582E4E0
:10177B0035F0F583E582243BF582E5833403121BB8
:10178B007A0CBC08E1E55304FDAF51121B54E4FC89
:10179B0075F010E557A42CF582E435F0F583E5825E
:1017AB002443F582E5833403121B7A0CBC08E174E5
:0A17BB00082551F5510558021741A9
:0117C5002201
:061A8C007A007D067C00DB
:061A92008C518D52A907E2
:101A9800E4FCEBAE027805C333CE33CED8F9FBAA0B
:101AA80006AF01AD52121B54E4FC74132BF582747B
:101AB800003A121B7A0BBB00010A0CBC10ECAF01F8
:101AC800E55204FD121B54E4FC74132BF5827400D8
:0D1AD8003A121B7A0BBB00010A0CBC10EC8B
:011AE50022DE
:0A18E6008F578C588D598A5A8B5B7E
:1018F000E4F561F562AE5CAF5DFC7D081210CEEDE3
:101900004CAE5CAF5D700AFC7D081210CE8F638018
:101910000B7C007D081210CEEF04F563855963C37C
:10192000E563955DE55C6480F8748098503AAD633A
:10193000AF57121B54AC57ECC3955BE55A6480F863
:10194000748098501FAB5EAA5FA9600562E562AE25
:10195000617002056114F5828E831210A1FF121BC3
:081960007F0C80D3056380B702
:01196800225C
:101C0000438901758AF0758CD8D2A9D28CD2AF22C3
:10147A0085264085253F85243E85233DE4F526F5CE
:10148A0025F524F5237BE87A03F9F8AF40AE3FADA2
:10149A003EAC3D121AE6E47B0AFAF9F8121AE6EBB8
:1014AA002430F549E47B64FAF9F8AF40AE3FAD3E2B
:1014BA00AC3D121AE6E47B0AFAF9F8121AE6EB24B2
:1014CA0030F54AE47B0AFAF9F8AF40AE3FAD3EACDC
:1014DA003D121AE6E47B0AFAF9F8121AE6EB24300E
:1014EA00F54BE47B0AFAF9F8AF40AE3FAD3EAC3DAE
:1014FA00121AE6EB2430F54CE4FAF9F8E51C24015B
:10150A00F51CEA351BF51BE9351AF51AE83519F504
:10151A0019E47B64AF1CAE1BAD1AAC19121AE6E4CF
:10152A007B0AFAF9F8121AE6EB2430F514E47B0A7E
:10153A00FAF9F8AF1CAE1BAD1AAC19121AE6E47B25
:10154A000AFAF9F8121AE6EB2430F515E47B0AFADE
:10155A00F9F8AF1CAE1BAD1AAC19121AE6EB24301F
:03156A00F5162251
:10136B00E4FBFAE544454370030213F8051EE51E42
:10137B007002051DC39401E51D64809480406EAE20
:10138B001DAF1E7C007D031210CEED64014C705D11
:10139B00E5324531700A0530E530700C052F8008B9
:1013AB00E53015307002152FE5306403452F7005BD
:1013BB00F531753201E530452F700CF51DF51EF535
:1013CB0031F532F543F544900001AD827F0A121BD3
:1013DB0054E4FAFBE4FF121B7F0BBB00010AEB6426
:1013EB00154A70F0A3E5826407458370DDE47B0248
:1013FB00FAF9F8AF26AE25AD24AC23121AE6AC00F1
:10140B00AD01AE02AF03E47B01FAF9F8C31211048C
:10141B00C3702BE5229530FDE521952FFCE52224A9
:10142B0003FFE43521FEC3EF9530F55DEE952FF507
:10143B005C755EFF755F0E75602B7B1E802BE52246
:10144B009530FDE521952FFCE5222403FFE43521A2
:10145B00FEC3EF9530F55DEE952FF55C755EFF7570
:0E146B005F0E7560677B1E7A007F0A1218E61E
:011479002250
:10123D00C3E52C9528F52CE52B9527F52BC364805C
:10124D0094805056052AE52A70020529752B0075E4
:10125D002C7F7D05E4FF121B54E4F555F556E4FF94
:10126D00121B7F0556E55670020555C3940BE555C7
:10127D006480948040E87D06E4FF121B54E4F5552C
:10128D00F556E4FF121B7F0556E55670020555C352
:10129D00940BE5556480948040E8C3E52C9475E586
:1012AD002B64809480500DE52C240BF554E4352BE4
:1012BD00F5538006755300755480AF547D05121B90
:1012CD0054E4F555F556C3E5569528E5276480F8A1
:1012DD00E555648098500FE4FF121B7F0556E556C7
:1012ED0070E4055580E0AF547D06121B54E4F555AE
:1012FD00F556C3E5569528E5276480F8E5556480D5
:10130D0098500FE4FF121B7F0556E55670E4055506
:10131D0080E0AF2C755C00755D08755EFF755F0E26
:10132D007560A3AB54AA537D057C001218E6C3E586
:10133D002C9419E52B648094805022E52C9407E5BC
:10134D002B648094804016E5309402E52F648094E0
:0D135D0080500AE4F53BF53CF52B752C7F24
:01136A002260
:10165D00C3E52E9528F52EE52D9527F52DC3648030
:10166D0094805056052AE52A70020529752D0075BE
:10167D002E7F7D05E4FF121B54E4F555F556E4FF6E
:10168D00121B7F0556E55670020555C3940BE555A3
:10169D006480948040E87D06E4FF121B54E4F55508
:1016AD00F556E4FF121B7F0556E55670020555C32E
:1016BD00940BE5556480948040E8C3E52E946BE56A
:1016CD002D64809480500DE52E2414F554E4352DB1
:1016DD00F5538006755300755480AF547D06121B6B
:1016ED0054E4F555F556C3E5569528E5276480F87D
:1016FD00E555648098500FE4FF121B7F0556E556A3
:10170D0070E4055580E0AF2E755C00755D08755E63
:10171D00FF755F0E7560C4AB54AA537D067C000245
:02172D0018E6BC
:100EEC00E4FAF9F8E5262401F526EA3525F525E995
:100EFC003524F524E83523F5237B007A00790EE4BC
:100F0C00FDFCFF1219697B007A007945E4FDFC7F3A
:100F1C0040121969AE29AF2A7C007D031210CEED68
:100F2C004C7003020FD1C3E52C9475E52B648094AF
:100F3C00804031121B50850C51850D52E50D2480DB
:100F4C00FFE4350CFEC3E5529FEE6480F8E5516476
:100F5C008098400302106A121B700552E55270DC37
:100F6C00055180D8121B50850C51850D52E50D256D
:100F7C002CFFE50C352BFEC3E5529FEE6480F8E5A3
:100F8C0051648098500D121B700552E55270DE05AD
:100F9C005180DAE52C240BFF7D07121B54E52C2421
:100FAC000BF552E4352BF551C3E5529480E55164B1
:100FBC00809480400302106A121B700552E5527037
:100FCC00E7055180E3C3E52E946BE52D6480948096
:100FDC00402E121B50850C51850D52E50D2480FFBF
:100FEC00E4350CFEC3E5529FEE6480F8E551648055
:100FFC0098506B121B700552E55270DF055180DB67
:10100C00121B50850C51850D52E50D252EFFE50C5C
:10101C00352DFEC3E5529FEE6480F8E5516480984F
:10102C00500D121B700552E55270DE055180DAE549
:10103C002E2414FF7D07121B54E52E2414F552E4C4
:10104C00352DF551C3E5529480E551648094805060
:10105C000D121B700552E55270EA055180E6E52829
:10106C00250DF50DE527350CF50CD3E50D9480E534
:10107C000C648094804005E4F50CF50D12136BAEF6
:10108C0029AF2A7C007D031210CEED4C60030212B6
:04109C003D12165D8E
:0110A000222D
:03000B00021A31A5
:101A3100C0E0C0F0C083C082C0D075D000C000C07B
:101A410001C002C003C004C005C006C007758AF00A
:101A5100758CD80542E542700205416464454170C8
:101A61000FE53C453B600312147A75410075420055
:101A7100D007D006D005D004D003D002D001D000C9
:0B1A8100D0D0D082D083D0F0D0E03273
:10156D00E4F54FF550121C001217C6121BAD0550B5
:10157D00E5507002054FD2A1E5444543700820A106
:10158D0005F543754401C3E55094E8E54F64809437
:10159D008340DBE4F54FF550E53C453B6005120E0D
:1015AD00EC80CB755C00755D08755EFF755F0A7527
:1015BD00602B7B807A00E4FDFCFF1218E6E4FBFA59
:1015CD007D06FCFF121A927B017F10121A8C7B0292
:1015DD007F20121A8C7B037A007D067C007F3012EF
:1015ED001A927B047A007D067C007F40121A927B52
:1015FD00057A007D067C007F50121A927B067A00D8
:10160D007D067C007F60121A927B077A007D067C36
:10161D00007F70121A927BFF7A00790E7D047C0098
:10162D00E4FF12172F7B007A00790E7D047C007F7A
:10163D003012172FD2A130A10302157B121BADE47E
:10164D00F51CF51BF51AF519F53B753C0102157BDB
:0300000002185A89
:0C185A00787FE4F6D8FD7581630218A1C8
:1010A100BB010CE58229F582E5833AF583E0225004
:1010B10006E92582F8E622BBFE06E92582F8E2224E
:0D10C100E58229F582E5833AF583E4932268
:1010CE00C2D5EC30E709B2D5E4C39DFDE49CFCEE3D
:1010DE0030E715B2D5E4C39FFFE49EFE12111AC38A
:1010EE00E49DFDE49CFC800312111A30D507C3E485
:0610FE009FFFE49EFE22AC
:101AE600C2D5E830E70FB2D5E4C39BFBE49AFAE42B
:101AF60099F9E498F8EC30E717B2D5121B1C1211CD
:101B0600ABE4C39BFBE49AFAE499F9E498F8800302
:101B16001211AB30D50DE4C39FFFE49EFEE49DFD9C
:041B2600E49CFC221D
:10110400EB9FF5F0EA9E42F0E99D42F0EC6480C862
:0611140064809845F02202
:1018660002156DE493A3F8E493A34003F68001F216
:1018760008DFF48029E493A3F85407240CC8C33383
:10188600C4540F4420C8834004F456800146F6DF52
:10189600E4800B01020408102040809019D5E47EF4
:1018A600019360BCA3FF543F30E509541FFEE49347
:1018B600A360010ECF54C025E060A840B8E493A30E
:1018C600FAE493A3F8E493A3C8C582C8CAC583CA39
:1018D600F0A3C8C582C8CAC583CADFE9DEE780BEF1
:011A300000B5
:10111A00BC000BBE0029EF8DF084FFADF022E4CCB9
:10112A00F875F008EF2FFFEE33FEEC33FCEE9DEC82
:10113A00984005FCEE9DFE0FD5F0E9E4CEFD22EDC8
:10114A00F8F5F0EE8420D21CFEADF075F008EF2F12
:10115A00FFED33FD4007985006D5F0F222C398FD03
:05116A000FD5F0EA22A0
:10116F0075F008758200EF2FFFEE33FECD33CDCC37
:10117F0033CCC58233C5829BED9AEC99E5829840BA
:10118F000CF582EE9BFEED9AFDEC99FC0FD5F0D697
:10119F00E4CEFBE4CDFAE4CCF9A88222B800C1B9C1
:1011AF000059BA002DEC8BF084CFCECDFCE5F0CBFF
:1011BF00F97818EF2FFFEE33FEED33FDEC33FCEB38
:1011CF0033FB10D703994004EB99FB0FD8E5E4F9F3
:1011DF00FA227818EF2FFFEE33FEED33FDEC33FCE0
:1011EF00C933C910D7059BE99A4007EC9BFCE99AD4
:1011FF00F90FD8E0E4C9FAE4CCFB2275F010EF2F19
:10120F00FFEE33FEED33FDCC33CCC833C810D70718
:10121F009BEC9AE899400AED9BFDEC9AFCE899F853
:0E122F000FD5F0DAE4CDFBE4CCFAE4C8F922E6
:00000001FF
